:100000007590FE30A01A30A12430A22A30A3347596
:1000100090FD30A03730A14130A24730A351017884
:10002000758015310011F0311411F0010075800058
:10003000310011F00100758001310011F03114110F
:10004000F00100758000310011F00100758004316D
:100050000011F0311411F00100758000310011F031
:100060000100758010310011F0311411F00100759C
:100070008000310011F001007590FB30A01A30A112
:100080002430A22A30A3347590F730A03730A14134
:1000900030A24730A3510100758005310011F031C5
:1000A0001411F00178758000310011F0017875802D
:1000B00011310011F0311411F00178758000310018
:1000C00011F00178758014310011F0311411F00134
:1000D00078758000310011F00178758015310011BC
:1000E000F0311411F00178758000310011F00178C1
:1000F0007E687D0111F6C2B73109D2B731090178A6
:100100007E017FC8DFFEDEFA228EF07F06DFFEDE94
:0D011000FAAEF0227E057AC8DFEADEE622B4
:00000001FF
